:100000000C943E000C945B000C945B000C945B0021
:100010000C945B000C945B000C945B000C945B00F4
:100020000C945B000C945B000C945B000C945B00E4
:100030000C945B000C945B000C945B000C945B00D4
:100040000C945B000C945B000C945B000C945B00C4
:100050000C945B000C945B000C945B000C945B00B4
:100060000C945B000C945B000C941F020C945B00DE
:100070000C945B000C945B000C945B0011241FBE7D
:10008000CFEFD4E0DEBFCDBF11E0A0E0B1E0E4EF00
:10009000F4E002C005900D92A830B107D9F721E035
:1000A000A8E0B1E001C01D92A831B207E1F70E94BB
:1000B0000A010C9478020C94000090911701E92F2A
:1000C000F0E0E85FFE4F808381E0890F953019F002
:1000D0008093170108951092170108954298E091B6
:1000E0001601F0E0EC5FFE4F80818093BB008091B1
:1000F000160191E0980F823019F09093160108953F
:100100001092160108959C01ADE7B0E00E946902CB
:10011000611571058105910509F40895000000003D
:1001200000000000000000000000000000000000CF
:1001300000000000000000000000000000000000BF
:1001400000000000000000000000000000000000AF
:10015000000000000000000000000000000000009F
:10016000000000000000000000000000000000008F
:10017000000000000000000000000000000000007F
:100180000000000000000000000000006150710944
:1001900081099109BDCF10927C0080917C00806222
:1001A00080937C0086ED80937A0080917A0084FFB2
:1001B000FCCF809179008093050181E080937C00E1
:1001C00080917C00806280937C0086ED80937A0031
:1001D00080917A0084FFFCCF8091790080930601A2
:1001E0000895CF93DF930E94C601C8E0D1E04A8111
:1001F000698188810E94D5014D816C818B810E942B
:10020000D50148856F818E810E94D501DF91CF9104
:100210000C94D20185B7806885BF85B7806885BF9B
:1002200081E090E00E9483008AB1807F8AB98BB11F
:100230008F608BB93A9A42980E94AF016EE670E0E7
:100240008DE590E00E94060280E10E940F02789402
:10025000C0E046E06C2F86E00E94EA018EE190E06B
:100260000E948300CF5FC233A1F7C0E04C2F63E050
:1002700083E00E94EA018EE190E00E948300CF5F5C
:10028000C233A1F7C0E04C2F61E081E00E94EA0197
:100290008EE190E00E948300CF5FC233A1F710E0AF
:1002A00009E1C1E0D0E01A3008F43EC00E94F1003C
:1002B0000E94CB0010E0EEE0F1E030E020E040E012
:1002C0008191811147C0211131C089B18170D9015B
:1002D000A050BF4F9C91981729F08C93DF01119784
:1002E0000C9341E02F5F3F4F2430310549F7442301
:1002F000B1F0E0E0F1E090E080E020E031913323E4
:1003000039F0AE01082E01C0440F0A94EAF7242BFD
:1003100001968430910591F720930401429A81E07F
:1003200090E00E948300BFCF1F5FC5CF213021F432
:1003300089B186958170CBCF223029F489B182FBB7
:10034000882780F9C4CF233011F689B183FB882731
:1003500080F9BDCFDF01119781508C93C3CF84B159
:10036000806A84B985B1806A85B9089528E030E053
:1003700087FF0AC02D9A00002F9800002F9A880F3F
:1003800021503109A9F708952D98F5CF80E00E94FA
:10039000B60180E00E94B60180E00E94B60180E0D4
:1003A0000C94B6018FEF0C94B6011F93CF93DF939B
:1003B000182FD62FC42F8FEF0E94B601812F0E94D5
:1003C000B6018D2F0E94B6018C2FDF91CF911F9126
:1003D0000C94B6011F93CF93DF93C82FD62F142F01
:1003E0000E94C601412F6D2F8C2F0E94D501412FF5
:1003F0006D2F8C2F0E94D501412F6D2F8C2F0E94C5
:10040000D501DF91CF911F910C94D20190931501EA
:100410008093140170931301609312010895F8946E
:10042000880F8093BA0085EC8093BC00789408957F
:10043000F8941092BC001092BA00789408951F921C
:100440000F920FB60F9211242F933F934F935F9308
:100450006F937F938F939F93AF93BF93EF93FF938C
:100460008091B900887F803831F1C0F4882371F120
:100470008036F1F085EC8093BC00FF91EF91BF9145
:10048000AF919F918F917F916F915F914F913F912C
:100490002F910F900FBE0F901F901895883A99F0EA
:1004A000883B41F7E0911201F09113010995E2CFE9
:1004B00010921701DFCF8091BB00E0911401F09101
:1004C00015010995D7CF10921601ECCF1092BC0000
:1004D000D1CFA29FB001B39FC001A39F700D811D1A
:1004E0001124911DB29F700D811D1124911D08953D
:0404F000F894FFCFAE
:0804F40001010101FF000000FD
:00000001FF
