:100000000C943E000C945B000C945B000C945B0021
:100010000C945B000C945B000C945B000C945B00F4
:100020000C945B000C945B000C945B000C945B00E4
:100030000C945B000C945B000C945B000C945B00D4
:100040000C945B000C945B000C945B000C945B00C4
:100050000C945B000C945B000C945B000C945B00B4
:100060000C945B000C945B000C9417020C945B00E6
:100070000C945B000C945B000C945B0011241FBE7D
:10008000CFEFD4E0DEBFCDBF11E0A0E0B1E0E4EE01
:10009000F4E002C005900D92AA30B107D9F721E033
:1000A000AAE0B1E001C01D92AA31B207E1F70E94B7
:1000B00007010C9470020C94000090911901E92F33
:1000C000F0E0E65FFE4F808381E0890F953019F004
:1000D0008093190108951092190108954298E091B2
:1000E0001801F0E0EC5FFE4F80818093BB008091AF
:1000F000180191E0980F843019F090931801089539
:100100001092180108959C01ADE7B0E00E946102D1
:10011000611571058105910509F40895000000003D
:1001200000000000000000000000000000000000CF
:1001300000000000000000000000000000000000BF
:1001400000000000000000000000000000000000AF
:10015000000000000000000000000000000000009F
:10016000000000000000000000000000000000008F
:10017000000000000000000000000000000000007F
:100180000000000000000000000000006150710944
:1001900081099109BDCF10927C0086ED80937A0091
:1001A00080917A0084FFFCCF809178009091790053
:1001B000F8949093060180930501789481E08093F0
:1001C0007C0086ED80937A0080917A0084FFFCCFDA
:1001D0008091780090917900F89490930801809331
:1001E000070178940895CF93DF930E94C301CAE07A
:1001F000D1E04A81698188810E94D2014D816C8160
:100200008B810E94D201DF91CF910C94CF0185B7F1
:10021000806885BF85B7806885BF81E090E00E94D7
:1002200083008AB1807F8AB98BB18F608BB93A9A8B
:1002300042980E94AC016EE670E08DE590E00E946D
:10024000FE0180E10E9407027894C0E046E06C2F36
:1002500086E00E94E7018EE190E00E948300CF5F7C
:10026000C233A1F7C0E04C2F63E083E00E94E701B6
:100270008EE190E00E948300CF5FC233A1F7C0E01F
:100280004C2F61E081E00E94E7018EE190E00E9446
:100290008300CF5FC233A1F710E009E1C1E0D0E0F5
:1002A0001A3008F43EC00E94F3000E94CB0010E018
:1002B000E0E1F1E030E020E040E08191811147C0D1
:1002C000211131C089B18170D901A050BF4F9C91DB
:1002D000981729F08C93DF0111970C9341E02F5F61
:1002E0003F4F2430310549F74423B1F0E0E0F1E01D
:1002F00090E080E020E03191332339F0AE01082E08
:1003000001C0440F0A94EAF7242B0196843091052A
:1003100091F720930401429A81E090E00E948300CB
:10032000BFCF1F5FC5CF213021F489B18695817081
:10033000CBCF223029F489B182FB882780F9C4CF42
:10034000233011F689B183FB882780F9BDCFDF0107
:10035000119781508C93C3CF84B1806A84B985B1E1
:10036000806A85B9089528E030E087FF0AC02D9A99
:1003700000002F9800002F9A880F21503109A9F70B
:1003800008952D98F5CF80E00E94B30180E00E948F
:10039000B30180E00E94B30180E00C94B3018FEFC1
:1003A0000C94B3011F93CF93DF93182FD62FC42F34
:1003B0008FEF0E94B301812F0E94B3018D2F0E9405
:1003C000B3018C2FDF91CF911F910C94B3011F9338
:1003D000CF93DF93C82FD62F142F0E94C301412F34
:1003E0006D2F8C2F0E94D201412F6D2F8C2F0E94D8
:1003F000D201DF91CF911F910C94CF0190931701FF
:100400008093160170931501609314010895F89478
:10041000880F8093BA0085EC8093BC00789408958F
:10042000F8941092BC001092BA00789408951F922C
:100430000F920FB60F9211242F933F934F935F9318
:100440006F937F938F939F93AF93BF93EF93FF939C
:100450008091B900887F803831F1C0F4882371F130
:100460008036F1F085EC8093BC00FF91EF91BF9155
:10047000AF919F918F917F916F915F914F913F913C
:100480002F910F900FBE0F901F901895883A99F0FA
:10049000883B41F7E0911401F09115010995E2CFF5
:1004A00010921901DFCF8091BB00E0911601F0910D
:1004B00017010995D7CF10921801ECCF1092BC000C
:1004C000D1CFA29FB001B39FC001A39F700D811D2A
:1004D0001124911DB29F700D811D1124911D08954D
:0404E000F894FFCFBE
:0A04E40001010101FF00000000000B
:00000001FF
